:020000040800F2
:10000000000001209DF200083DE3000865E30008C0
:1000100065E4000867E4000869E4000800000000E7
:100020000000000000000000000000006BE4000879
:100030006DE40008000000006FE4000871E40008AF
:10004000EDF200084DE50008EDF20008EDF20008C1
:1000500045E50008EDF20008EDF20008EDF20008B9
:10006000EDF20008EDF20008EDF20008EDF20008F4
:10007000EDF2000879E40008EDF20008EDF2000866
:10008000EDF20008EDF20008EDF20008EDF20008D4
:10009000EDF20008EDF20008EDF20008EDF20008C4
:1000A000EDF2000891E40008EDF20008EDF200081E
:1000B000EDF200080000000000000000A1E40008CC
:1000C000B1E40008C1E40008D1E40008E1E400085C
:1000D000F1E4000801E5000819E50008EDF2000868
:1000E00029E50008EDF20008000000000000000013
:1000F0000000000000000000000000000000000000
:1001000000000000EDF2000800000000EDF2000821
:100110000000000000000000EDF20008EDF2000811
:10012000EDF20008EDF20008EDF20008EDF2000833
:10013000EDF20008000000000000000000000000D8
:10014000EDF20008EDF20008EDF2000835E50008D8
:10015000EDF20008EDF20008EDF20008EDF2000803
:10016000EDF20008EDF20008EDF2000800000000DA
:10017000EDF20008EDF20008EDF2000800000000CA
:0C018000EDF20008EDF20008EDF20008BE
:1001900010B5054C237833B9044B13B10448AFF3C1
:1001A00000800123237010BDE40400200000000043
:1001B000600A010808B5034B1BB103490348AFF3BC
:1001C000008008BD00000000E8040020600A01086B
:1001D000034613F8012B002AFBD1181A0138704787
:1001E00001F0FF01102A2BDB10F0070F08D010F8E8
:1001F000013B013A8B422DD010F0070F42B3F6D1EC
:10020000F0B441EA012141EA014122F007047FF004
:1002100000070023F0E80256083C85EA010586EA5B
:10022000010685FA47F5A3FA87F586FA47F6A5FA97
:1002300087F68EB9EED1F0BC01F0FF0102F00702A3
:1002400032B110F8013B013A83EA010313B1F8D14E
:100250000020704701387047002D06BF354603382F
:10026000073815F0010F07D1013015F4807F02BF68
:10027000013015F4C03F0130F0BC0138704700BFB9
:1002800081F0004102E000BF83F0004330B54FEA47
:1002900041044FEA430594EA050F08BF90EA020FB4
:1002A0001FBF54EA000C55EA020C7FEA645C7FEA47
:1002B000655C00F0E2804FEA5454D4EB5555B8BF6A
:1002C0006D420CDD2C4480EA020281EA030382EADB
:1002D000000083EA010180EA020281EA0303362D6D
:1002E00088BF30BD11F0004F4FEA01314FF4801C40
:1002F0004CEA113102D0404261EB410113F0004F52
:100300004FEA03334CEA133302D0524263EB430308
:1003100094EA050F00F0A780A4F10104D5F1200EA6
:100320000DDB02FA0EFC22FA05F2801841F1000101
:1003300003FA0EF2801843FA05F359410EE0A5F1D5
:1003400020050EF1200E012A03FA0EFC28BF4CF006
:10035000020C43FA05F3C01851EBE37101F00045BC
:1003600007D54FF0000EDCF1000C7EEB00006EEBC9
:100370000101B1F5801F1BD3B1F5001F0CD3490853
:100380005FEA30004FEA3C0C04F101044FEA4452AA
:1003900012F5800F80F09A80BCF1004F08BF5FEA31
:1003A000500C50F1000041EB045141EA050130BD11
:1003B0005FEA4C0C404141EB010111F4801FA4F1B4
:1003C0000104E9D191F0000F04BF01460020B1FA09
:1003D00081F308BF2033A3F10B03B3F120020CDA41
:1003E0000C3208DD02F1140CC2F10C0201FA0CF01F
:1003F00021FA02F10CE002F11402D8BFC2F1200C84
:1004000001FA02F120FA0CFCDCBF41EA0C01904039
:10041000E41AA2BF01EB0451294330BD6FEA040482
:100420001F3C1CDA0C340EDC04F11404C4F120026D
:1004300020FA04F001FA02F340EA030021FA04F37F
:1004400045EA030130BDC4F10C04C4F1200220FAD6
:1004500002F001FA04F340EA0300294630BD21FA14
:1004600004F0294630BD94F0000F83F4801306BFDA
:1004700081F480110134013D4EE77FEA645C18BFCE
:100480007FEA655C29D094EA050F08BF90EA020F65
:1004900005D054EA000C04BF1946104630BD91EA5D
:1004A000030F1EBF0021002030BD5FEA545C05D160
:1004B0004000494128BF41F0004130BD14F580049F
:1004C0003CBF01F5801130BD01F0004545F0FE4113
:1004D00041F470014FF0000030BD7FEA645C1ABF48
:1004E000194610467FEA655C1CBF0B46024650EA7F
:1004F000013406BF52EA033591EA030F41F40021AB
:1005000030BD00BF90F0000F04BF0021704730B530
:100510004FF4806404F132044FF000054FF0000105
:1005200050E700BF90F0000F04BF0021704730B5C6
:100530004FF4806404F1320410F0004548BF40429B
:100540004FF000013EE700BF42004FEAE2014FEAF0
:1005500031014FEA02701FBF12F07F4393F07F4FCB
:1005600081F06051704732F07F4208BF704793F0CE
:100570007F4F04BF41F40021704730B54FF46074E1
:1005800001F0004521F000411CE700BF50EA0102E4
:1005900008BF704730B54FF000050AE050EA01028D
:1005A00008BF704730B511F0004502D5404261EBFD
:1005B00041014FF4806404F132045FEA915C3FF43E
:1005C000D8AE4FF003025FEADC0C18BF03325FEADB
:1005D000DC0C18BF033202EBDC02C2F1200300FA8C
:1005E00003FC20FA02F001FA03FE40EA0E0021FAB1
:1005F00002F11444BDE600BF70B54FF0FF0C4CF49F
:10060000E06C1CEA11541DBF1CEA135594EA0C0F50
:1006100095EA0C0F00F0DEF82C4481EA030621EA8B
:100620004C5123EA4C5350EA013518BF52EA0335C6
:1006300041F4801143F4801338D0A0FB02CE4FF078
:100640000005E1FB02E506F00042E0FB03E54FF0A8
:100650000006E1FB03569CF0000F18BF4EF0010EA0
:10066000A4F1FF04B6F5007F64F5407404D25FEA9C
:100670004E0E6D4146EB060642EAC62141EA55514F
:100680004FEAC52040EA5E504FEACE2EB4F1FD0C91
:1006900088BFBCF5E06F1ED8BEF1004F08BF5FEA0F
:1006A000500E50F1000041EB045170BD06F00046C1
:1006B00046EA010140EA020081EA0301B4EB5C046E
:1006C000C2BFD4EB0C0541EA045170BD41F4801166
:1006D0004FF0000E013C00F3AB8014F1360FDEBF8B
:1006E000002001F0004170BDC4F10004203C35DA67
:1006F0000C341BDC04F11404C4F1200500FA05F3EA
:1007000020FA04F001FA05F240EA020001F000428A
:1007100021F0004110EBD37021FA04F642EB060100
:100720005EEA430E08BF20EAD37070BDC4F10C042A
:10073000C4F1200500FA04F320FA05F001FA04F2EE
:1007400040EA020001F0004110EBD37041F10001DA
:100750005EEA430E08BF20EAD37070BDC4F12005E5
:1007600000FA05F24EEA020E20FA04F301FA05F24D
:1007700043EA020321FA04F001F0004121FA04F2F5
:1007800020EA020000EBD3705EEA430E08BF20EAC5
:10079000D37070BD94F0000F0FD101F000464000FF
:1007A00041EB010111F4801F08BF013CF7D041EA81
:1007B000060195F0000F18BF704703F00046520085
:1007C00043EB030313F4801F08BF013DF7D043EA56
:1007D0000603704794EA0C0F0CEA135518BF95EA0C
:1007E0000C0F0CD050EA410618BF52EA4306D1D193
:1007F00081EA030101F000414FF0000070BD50EAB2
:10080000410606BF1046194652EA430619D094EA3B
:100810000C0F02D150EA013613D195EA0C0F05D125
:1008200052EA03361CBF104619460AD181EA030179
:1008300001F0004141F0FE4141F470014FF0000031
:1008400070BD41F0FE4141F4780170BD70B54FF0CC
:10085000FF0C4CF4E06C1CEA11541DBF1CEA13554C
:1008600094EA0C0F95EA0C0F00F0A7F8A4EB05042E
:1008700081EA030E52EA03354FEA013100F0888025
:100880004FEA03334FF0805545EA131343EA1263EE
:100890004FEA022245EA111545EA10654FEA0026A3
:1008A0000EF000419D4208BF964244F1FD0404F55C
:1008B000407402D25B084FEA3202B61A65EB0305B8
:1008C0005B084FEA32024FF480104FF4002CB6EB75
:1008D000020E75EB030E22BFB61A754640EA0C00F5
:1008E0005B084FEA3202B6EB020E75EB030E22BF35
:1008F000B61A754640EA5C005B084FEA3202B6EB76
:10090000020E75EB030E22BFB61A754640EA9C0034
:100910005B084FEA3202B6EB020E75EB030E22BF04
:10092000B61A754640EADC0055EA060E18D04FEAC2
:10093000051545EA16754FEA06164FEAC30343EA62
:1009400052734FEAC2025FEA1C1CC0D111F4801F2F
:100950000BD141EA00014FF000004FF0004CB6E728
:1009600011F4801F04BF01430020B4F1FD0C88BFC7
:10097000BCF5E06F3FF6AFAEB5EB030C04BFB6EBD2
:10098000020C5FEA500C50F1000041EB045170BDC5
:100990000EF0004E4EEA113114EB5C04C2BFD4EBF2
:1009A0000C0541EA045170BD41F480114FF0000E76
:1009B000013C90E645EA060E8DE60CEA135594EAF2
:1009C0000C0F08BF95EA0C0F3FF43BAF94EA0C0FF5
:1009D0000AD150EA01347FF434AF95EA0C0F7FF46A
:1009E00025AF104619462CE795EA0C0F06D152EABE
:1009F00003353FF4FDAE1046194622E750EA4106A2
:100A000018BF52EA43067FF4C5AE50EA41047FF4B2
:100A10000DAF52EA43057FF4EBAE12E74FF0FF3C17
:100A200006E000BF4FF0010C02E000BF4FF0010CE8
:100A30004DF804CD4FEA410C7FEA6C5C4FEA430C61
:100A400018BF7FEA6C5C1BD001B050EA410C0CBFB0
:100A500052EA430C91EA030F02BF90EA020F002012
:100A6000704710F1000F91EA030F58BF994208BF79
:100A700090422CBFD8176FEAE37040F00100704736
:100A80004FEA410C7FEA6C5C02D150EA013C07D18D
:100A90004FEA430C7FEA6C5CD6D152EA033CD3D0D8
:100AA0005DF8040B704700BF8446104662468C46D2
:100AB0001946634600E000BF01B5FFF7B7FF002805
:100AC00048BF10F1000F01BD4DF808EDFFF7F4FF2E
:100AD0000CBF012000205DF808FB00BF4DF808EDB9
:100AE000FFF7EAFF34BF012000205DF808FB00BFDC
:100AF0004DF808EDFFF7E0FF94BF012000205DF8FE
:100B000008FB00BF4DF808EDFFF7CEFF94BF0120B2
:100B100000205DF808FB00BF4DF808EDFFF7C4FFAB
:100B200034BF012000205DF808FB00BF4A0011D24D
:100B300012F5001211D20DD56FF47873B3EB625237
:100B40000ED44FEAC12343F0004343EA505323FA43
:100B500002F070474FF00000704750EA013002D1B8
:100B60004FF0FF3070474FF0000070474FEA4102EE
:100B7000B2F1E04324BFB3F5001CDCF1FE5C0DD9FB
:100B800001F0004C4FEAC0024CEA5070B2F1004F45
:100B900040EB830008BF20F00100704711F0804F48
:100BA00021D113F13872BCBF01F00040704741F40D
:100BB00080114FEA5252C2F11802C2F1200C10FA11
:100BC0000CF320FA02F018BF40F001004FEAC123F5
:100BD0004FEAD32303FA0CFC40EA0C0023FA02F399
:100BE0004FEA4303CCE77FEA625307D150EA01336F
:100BF0001EBF4FF0FE4040F44000704701F000403F
:100C000040F0FE4040F40000704700BF53B94AB9BD
:100C1000002908BF00281CBF4FF0FF314FF0FF3004
:100C200000F072B9ADF1080C6DE904CE00F006F8E1
:100C3000DDF804E0DDE9022304B070472DE9F04758
:100C4000089E04468846002B4BD18A42154667D938
:100C5000B2FA82F24AB1C2F1200701FA02F320FA95
:100C600007F7954047EA030894404FEA154E230CD6
:100C7000B8FBFEF71FFA85FC0EFB178843EA084312
:100C800007FB0CF1994209D9EB1807F1FF3080F00E
:100C90001B81994240F21881023F2B445B1AA4B297
:100CA000B3FBFEF00EFB103344EA034400FB0CFCE4
:100CB000A44509D92C1900F1FF3380F00781A44520
:100CC00040F2048102382C4440EA0740A4EB0C04B3
:100CD00000271EB1D4400023C6E900433946BDE8D1
:100CE000F0878B4209D9002E00F0EB800027C6E97F
:100CF000000138463946BDE8F087B3FA83F7002F84
:100D000047D18B4202D3824200F2FA80841A61EB0F
:100D1000030301209846002EE0D0C6E90048DDE735
:100D200002B9FFDEB2FA82F2002A40F08F80491B3E
:100D30004FEA154E1FFA85F80127B1FBFEFC230C84
:100D40000EFB1C1143EA014308FB0CF1994207D941
:100D5000EB180CF1FF3002D2994200F2CD808446AC
:100D6000591AA3B2B1FBFEF00EFB101443EA04447F
:100D700008FB00F8A04507D92C1900F1FF3302D277
:100D8000A04500F2B6801846A4EB080440EA0C40E7
:100D90009FE7C7F1200CBB4022FA0CFE4EEA030E7F
:100DA00001FA07F420FA0CF521FA0CF34FEA1E4879
:100DB0002543B3FBF8F92C0C08FB19331FFA8EFA04
:100DC00044EA034309FB0AF49C4202FA07F200FAE0
:100DD00007F10BD91EEB030309F1FF3080F0878088
:100DE0009C4240F28480A9F1020973441B1BADB2FE
:100DF000B3FBF8F008FB103345EA034400FB0AFAA2
:100E0000A24508D91EEB040400F1FF336BD2A245C2
:100E100069D90238744440EA0940A0FB0289A4EB76
:100E20000A044C45C2464B4654D351D0002E69D0DB
:100E3000B1EB0A0564EB030404FA0CFCFD40FC4032
:100E40004CEA0505C6E90054002747E7C2F1200334
:100E500020FA03F7954001FA02F021FA03F34FEA72
:100E6000154E3843010CB3FBFEF71FFA85F80EFB55
:100E7000173341EA034107FB08F38B4204FA02F4FB
:100E800007D9691807F1FF3C2FD28B422DD9023FB9
:100E90002944CB1A81B2B3FBFEF00EFB103341EABA
:100EA000034100FB08F38B4207D9691800F1FF3CAE
:100EB00017D28B4215D902382944C91A40EA07478C
:100EC0003BE73746304609E70746E7E61846FBE6C4
:100ED0004145ABD2B8EB020A69EB0E02013813466A
:100EE000A4E76046E9E7184695E76746D1E78146FB
:100EF0007CE702382C4447E7ACF1020C2B442FE787
:100F0000384608E73746E9E6704700BF00B587B0C6
:100F10008DF817100B4B1B7813B907B05DF804FB65
:100F2000024664230293012301930DF117010091FE
:100F3000A021054801F076FA0028EED0014B0022EE
:100F40001A70EAE700050020F80E002070B588B09E
:100F50008DF8170008ABC52203F8012D0C4D64264F
:100F600002960124019400932346FE22A0212846E4
:100F700001F058FA029601940DF1170300932346ED
:100F8000FD22A021284601F04DFA08B070BD00BF37
:100F9000F80E002010B586B0FF238DF8173003201F
:100FA000FFF7D4FF012306AA02F8013D6421029154
:100FB000019300920022A021444801F033FA10B1BD
:100FC000002006B010BD642000F0CCF80320FFF72D
:100FD000BDFF06ABFF2203F8012D6422029201221D
:100FE000019200931346A021384801F01BFA0A2011
:100FF00000F0B8F80020FFF7A9FF00240FE006AAD0
:10100000002302F8013D642302930123019300921F
:101010002246A0212D4801F005FA0134E4B2172C34
:10102000EDD9642000F09EF80320FFF78FFF06AA99
:10103000052302F8013D64230293012301930092EA
:101040000022A021214801F0EDF908B10020B8E705
:10105000642000F087F80120FFF778FF00240FE0FC
:1010600006AA002302F8013D6423029301230193A1
:1010700000922246A021154801F0D4F90134E4B2CF
:10108000BE2CEDD9642000F06DF80020FFF75EFF64
:1010900000240FE006AAFF2302F8013D6423029317
:1010A0000123019300922246A021084801F0BAF9D9
:1010B0000134E4B2172CEDD9642000F053F801207C
:1010C000FFF744FF0120024B18707AE7F80E00206A
:1010D00000050020104B1B680BB90120704710B5AC
:1010E00004464FF47A70B0FBF3F30C4A1068B0FB7F
:1010F000F3F000F0B1F868B90F2C01D901200AE033
:10110000002221464FF0FF3000F052F8024B5C60A5
:10111000002000E0012010BD000000209C02002003
:1011200010B5032000F032F80020FFF7D3FF10B114
:101130000124204610BD04460DF0E8F8F9E7000050
:10114000034A1368034909680B441360704700BFE2
:10115000A80C002000000020014B1868704700BF59
:10116000A80C002038B50446FFF7F6FF0546B4F199
:10117000FF3F02D0044B1B681C44FFF7EDFF401BF0
:10118000A042FAD338BD00BF00000020074AD36850
:1011900023F4E0631B041B0C000200F4E06018431E
:1011A00040F0BF6040F40030D060704700ED00E0D8
:1011B00030B4174BDB68C3F30223C3F10704042CDC
:1011C00028BF04241D1D062D18D9033B4FF0FF3501
:1011D00005FA04F421EA0401994005FA03F322EA2E
:1011E0000303194300280BDB0901C9B200F1604079
:1011F00000F5614080F8001330BC70470023E5E73C
:1012000000F00F000901C9B2024B1954F4E700BF06
:1012100000ED00E014ED00E0002807DB00F01F0205
:10122000400901239340024A42F82030704700BF32
:1012300000E100E000280CDB00F01F024009012360
:1012400093402030034A42F82030BFF34F8FBFF362
:101250006F8F704700E100E00138B0F1807F0AD263
:10126000064B5860064AF02182F82310002098604F
:1012700007221A6070470120704700BF10E000E0AD
:1012800000ED00E0002869D010B403460168344A3C
:10129000914245D8334A0A443349A1FB021212094C
:1012A00092004264314A0264022283F825201868C1
:1012B000016821F4FF4121F070019A68DC68224343
:1012C0001C6922435C6922439C692243DC692243F6
:1012D0001C6A22430A4302609A68B2F5804F15D017
:1012E000196C224A914226D0214A1168586C00F0AC
:1012F0001C040F20A04021EA000111601168586809
:101300005C6C04F01C04A040014311600020D86311
:10131000012283F8252083F824005DF8044B7047F0
:10132000144A0A441049A1FB0212120992004264B5
:10133000114A0264B8E7A8321168586C00F01C0426
:101340000F20A04021EA00011160116858685C6C10
:1013500004F01C04A04001431160D7E7012070474E
:1013600007040240F8FFFDBFCDCCCCCC000002400A
:10137000A8040240F8FBFDBF0004024000284FD043
:1013800010B4034601680A6822F001020A6001688D
:10139000244A91422ED8244A0A442449A1FB02122D
:1013A000120992004264224A02641A680021116004
:1013B0005A6C02F01C01186C01228A404260196CC0
:1013C0001B4A914221D01B4C2268596C01F01C0031
:1013D0000F21814022EA010222600020D8621863B6
:1013E00058639863D86383F8250083F824005DF878
:1013F000044B7047104A0A440C49A1FB021212091F
:10140000920042640D4A0264CFE70D4C2268596C89
:1014100001F01C000F21814022EA01022260DCE77A
:101420000120704707040240F8FFFDBFCDCCCCCCB3
:1014300000000240A8040240F8FBFDBF0004024087
:10144000A800024008B590F82530DBB2022B03D08B
:101450000423C363012008BD0268136823F00E0350
:1014600013600268136823F001031360436C03F0F8
:101470001C03016C012202FA03F34B6080F8252063
:10148000002380F82430836B13B198470020E2E7F3
:101490000020E0E738B5036C196804682568436CE0
:1014A00003F01C0304229A400A4215D015F0040FE1
:1014B00012D0236813F0200F03D1236823F0040314
:1014C0002360436C03F01C02016C042393404B60C7
:1014D000036B03B1984738BD02229A400A421CD0E0
:1014E00015F0020F19D0236813F0200F06D12368DE
:1014F00023F00A032360012380F82530436C03F0B6
:101500001C02016C022393404B60002380F82430BE
:10151000C36A002BDFD09847DDE7082202FA03F305
:101520000B42D8D015F0080FD5D0236823F00E0356
:101530002360436C03F01C03016C012202FA03F3E5
:101540004B60C26380F82520002380F82430436B71
:10155000002BC0D09847BEE710B4064C616941F03B
:10156000010161610260BFF36F8F43605DF8044B5E
:10157000704700BF0020024010B40B4A536943F487
:1015800080235361EFF3108472B6402351F8042B8B
:1015900040F8042B013B13F0FF03F7D184F31088CC
:1015A0005DF8044B704700BF002002407047704751
:1015B00010B5504A536923F47F7323F0030353613A
:1015C0004D4B1B7ADBB2042B50D04A4A136923F0EF
:1015D0007F4323F47D0323F4705323F005039269C2
:1015E00002F08042134322D043494A681A434A60BA
:1015F00013F0404203D03F49886902438A6133F0C7
:10160000404301D03B4A136100F054F93A4B1B7A36
:10161000DBB2012B2FD0022B32D0033BDBB2012BEC
:1016200033D90020FFF7C3FF334B00221A72314B2E
:101630001B6913F0010F47D02E4B01221A612E4B6C
:101640001B7ADBB2934231D12B4B9A69013A9A61F2
:101650009B69FBB1284C6069FFF7A8FF6369013300
:1016600063616069216900F011F92DE0536923F489
:1016700080235361A9E7204B5869FFF798FFD3E710
:101680001D4B1869FFF793FFCEE71B4BD868FFF798
:101690008EFFC9E7184C4FF0FF33636100232372BC
:1016A00000F008F96069FFF781FF0DE000F002F932
:1016B000114B1B7ADBB2022B12D0033BDBB2012BA6
:1016C00013D90D4B00221A720B4B1B7A3BB9094AF6
:1016D000536923F040735361074B00221A7010BD09
:1016E000054B1869FFF762FFEBE7034BD868FFF77C
:1016F0005DFFE6E70020024008000020094B5B691F
:10170000002B01DB00207047064B074A9A6002F16C
:1017100088329A605B69002B01DB00207047012052
:10172000704700BF002002402301674538B50446DA
:10173000FFF712FD05461F4B1B6913F4803F09D0CC
:10174000B4F1FF3FF7D0FFF707FD401BA042F2D3F3
:10175000032029E0174A136923F07F4323F47D0314
:1017600023F4705323F00503926902F000421343FF
:1017700011D011494A681A434A6013F0404203D01D
:101780000C49886902438A6133F040430DD0094A0D
:101790001361012008E0074B1B6913F0010F06D00D
:1017A000044B01221A61002038BD0120FCE7002013
:1017B000FAE700BF00200240080000202DE9F041B8
:1017C000284C2478012C4AD0984617460D460446EA
:1017D000244B01221A704CF25030FFF7A7FF064647
:1017E00008BB204B00225A601F4B1B6813F4806F0C
:1017F0001FD01D4A136823F480631360194B022223
:101800001A77D4B1631E012B1ED900244CF250303C
:10181000FFF78CFF064624B1134A536923EA0404F8
:10182000546100F047F80F4B00221A703046BDE8B3
:10183000F0810C4B00221A77E3E73A4643462846EC
:10184000FFF78AFE0124E1E739462846FFF794FEB8
:10185000022C01D00024D9E74FF48024D6E70226D9
:10186000E4E700BF080000200020024010F0010F54
:1018700004D0054A536943F004035361024A536993
:1018800043F480335361704700200240084B5A698B
:1018900022F47E72C00000F4FF6002435A615A696C
:1018A00042F002025A615A6942F480325A6170472A
:1018B00000200240144B1B7FDBB2012B01D0032B15
:1018C0000CD1124A116841F400611160116821F4D1
:1018D00000611160116841F400711160023BDBB2DC
:1018E000012B03D9084B00221A777047074B1A685F
:1018F00042F480521A601A6822F480521A601A6800
:1019000042F480621A60EDE70800002000200240E7
:10191000F8B53B4B1B78012B6FD00E460446384B75
:1019200001221A704CF25030FFF700FF07460028E2
:101930005ED1334B00225A60324B1B6813F4007F98
:1019400033D0304B1A6822F400721A601B6813F40B
:10195000806F26D02B4A136823F480631360284BD2
:1019600003221A772368012B31D04FF0FF33336005
:10197000A568A368E2681344AB4237D9616828467A
:10198000FFF784FF4CF25030FFF7D0FE1D4A536939
:1019900023F47E7323F002035361074628BB01350D
:1019A000E7E7174B01221A77DCE7164B1B6813F4A5
:1019B000806F08D0134A136823F480631360104BC0
:1019C00002221A77CEE70E4B00221A77CAE7606828
:1019D000FFF74CFF4CF25030FFF7A8FE0746094ACC
:1019E000536923F00403536100E03560FFF762FFA1
:1019F000034B00221A703846F8BD0227FBE700BFF0
:101A00000800002000200240F0B482B0002336E03D
:101A1000042400E00024B4403C4302355B4E46F809
:101A200025405B4C2568D44304EA05064F6817F44B
:101A3000803F01D042EA0506554D2E606D6804EAEC
:101A400005064F6817F4003F01D042EA0506504DE5
:101A50006E60AD6804EA05064F6817F4801F01D078
:101A600042EA05064A4DAE60ED682C404E6816F419
:101A7000001F01D042EA0504454AD46001330A68D8
:101A800032FA03F47ED001249C402240F6D04D6807
:101A9000022D01D0122D10D1DE08083650F826C0D4
:101AA00003F00705AF000F25BD402CEA050C0D69BA
:101AB000BD4045EA0C0540F8265006685F00032546
:101AC000BD40ED4305EA060C4E6806F00306BE4035
:101AD00046EA0C0606604E6806F1FF3CBCF1010FB9
:101AE00003D9112E01D0122E10D1866805EA060CFA
:101AF000CE68BE4046EA0C068660466826EA0404C4
:101B00004E68C6F300169E4026434660C4682540D2
:101B10008C68BC402C43C4604C6814F0805FADD02E
:101B20001C4C256E45F001052566246E04F0010469
:101B30000194019C9D08AE1C144C54F8267003F0CF
:101B40000304A6000F24B44027EA0407B0F1904F25
:101B50003FF460AF104CA0420ED004F58064A04268
:101B60000CD004F58064A0420AD004F58064A04241
:101B70003FF44EAF07244EE701244CE702244AE726
:101B8000032448E702B0F0BC704700BF00000140EA
:101B9000000401400010024000040048002331FA14
:101BA00003F273D0F0B52CE0042600E0002606FA1C
:101BB00004F4AC4251D005685C00032606FA04F434
:101BC0002543056023FA06F5083550F8256003F033
:101BD00007074FEA870C0F2707FA0CF726EA0706D4
:101BE00040F825608568E44325408560456825EA1E
:101BF00002024260C2681440C460013331FA03F249
:101C000043D001229A4012EA010EF6D09F08BD1C73
:101C10001F4C54F8255003F00304A4000F2606FAC5
:101C200004FC0CEA0505B0F1904FBFD0194EB0424C
:101C30000DD006F58066B0420BD006F58066B04246
:101C400009D006F58066B042AED00726AFE7012680
:101C5000ADE70226ABE70326A9E70F4C26686FEA3B
:101C60000E052E40266066682E406660A6682E40EF
:101C7000A660E6683540E560054DBC1C55F824605B
:101C800026EA0C0645F8246095E7F0BD704700BFD2
:101C900000000140000400480004014003691942AB
:101CA00001D100207047012070470AB98162704756
:101CB0008161704708B5054B5B69034200D108BDDF
:101CC000024B586109F046FFF9E700BF00040140EC
:101CD00003689A6912F0020F01D000229A62036829
:101CE0009A6912F0010F03D19A6942F001029A61D8
:101CF000704770B4039E05686868740D04F48064CE
:101D000044F07F7444F4583444F47F7444F0030482
:101D100020EA0400C1F3090141EA024119433143B9
:101D20000143696070BC704711F0010F09D090F851
:101D3000413003F02803282B01D0F22302E0422394
:101D400000E0002311F0020F2CD010B443F0440443
:101D500090F8412002F02802282A18D043F0F4031A
:101D600011F0040F01D043F0B80301F01102112A61
:101D70000FD001F0120112290ED012290FD00168E4
:101D80000A6822EA03030B605DF8044B70472346A0
:101D9000E6E743F09003ECE743F02003EDE743F080
:101DA0004003ECE711F0040F01D043F0B80301F059
:101DB0001102112A0BD001F0120112290AD01229A6
:101DC0000BD001680A6822EA03030B60704743F0F6
:101DD0009003F0E743F02003F1E743F04003F0E71E
:101DE00070B504460D46164603689B6913F0100F44
:101DF0001CD023689A6912F0200F19D1B5F1FF3F6A
:101E0000F7D0FFF7A9F9801BA84201D8002DF0D127
:101E1000636C43F020036364202384F84130002383
:101E200084F8423084F84030012020E000201EE099
:101E30001022DA6123682025DD612046FFF748FF84
:101E40002268536823F0FF7323F48B3323F4FF736A
:101E500023F001035360636C43F00403636484F86C
:101E60004150002384F8423084F84030012070BD96
:101E700070B504460D46164623689B6913F0020FA1
:101E80001DD1324629462046FFF7AAFFC8B9B5F151
:101E9000FF3FF1D0FFF760F9801BA84201D8002D69
:101EA000EAD1636C43F020036364202384F841305B
:101EB000002384F8423084F84030012000E0002004
:101EC00070BD0120FCE7F8B505460F4616461C46D6
:101ED0002B689B6937EA03030CBF01230023B3423D
:101EE00018D1B4F1FF3FF3D0FFF736F9069BC01AC3
:101EF000A04201D8002CEBD16B6C43F020036B6443
:101F0000202385F84130002385F8423085F84030A1
:101F1000012000E00020F8BD70B582B004461646EE
:101F20001D46184B00934FF08073EAB2FFF7E1FEB5
:101F3000079A06992046FFF79BFFE8B9012D0ED1BD
:101F40002368F6B29E62079B0093069B00228021C5
:101F50002046FFF7B8FF034678B101230DE0236860
:101F6000320A9A62079A06992046FFF781FF38B92C
:101F70002368F6B29E62E6E70123184602B070BD00
:101F80000123FAE70020008070B505460C4616468E
:101F90002B689B6913F0200F1AD132462146284640
:101FA000FFF71EFFB0B9FFF7D7F8801BA04201D89A
:101FB000002CEDD16B6C43F020036B64202385F87B
:101FC0004130002385F8423085F84030012070BD53
:101FD0000020FCE70120FAE770B504460D461646DE
:101FE00023689B6913F0040F3ED1324629462046F0
:101FF000FFF7F6FE0146002838D123689A6912F0EF
:10200000200F13D1FFF7A8F8801BA84201D8002D9C
:10201000E6D1636C43F020036364202384F84130ED
:10202000002384F840300121084670BD9A6912F0FF
:10203000040F02D0228D002AF6D12022DA61216815
:102040004B6823F0FF7323F48B3323F4FF7323F0E7
:1020500001034B600023636484F8412084F842301C
:1020600084F840300121DFE70021DDE70121DBE7D3
:10207000002859D010B5044690F84130002B43D0C9
:10208000242384F841302268136823F0010313608D
:102090006368226823F0706313612268936823F4F5
:1020A00000439360E368012B33D0A368226843F4B4
:1020B00004439360E368022B31D02268536843F0F5
:1020C000007343F4004353602268D36823F4004351
:1020D000D360236962691343A169226843EA01233B
:1020E000D360E369216A22680B4313602268136896
:1020F00043F00103136000206064202384F8413022
:10210000206384F8420010BD80F8403008F0F4F9F4
:10211000B6E7A368226843F400439360CAE72368E4
:102120004FF400625A60C8E7012070472DE9F04380
:1021300083B090F84150EDB2202D40F0A48090F88B
:102140004040012C00F0A480984617460E460446F5
:102150004FF0010980F84090FEF7FEFF0546009021
:1021600019234A464FF400412046FFF7ACFE0028F1
:1021700040F09080212384F84130102384F84230CD
:10218000002363646762A4F82A806363638D9BB253
:10219000FF2B0AD9FF222285424B00934FF0807318
:1021A00031462046FFF7A5FD18E0628D92B22285E8
:1021B0003C4B00934FF00073D2B231462046FFF7FC
:1021C00098FD0BE0628D92B22285002300934FF0C0
:1021D0000073D2B231462046FFF78BFD638D9BB270
:1021E000002B33D02A460A992046FFF741FE0028EB
:1021F00052D1626A236812789A62636A0133636219
:10220000638D013B9BB26385238D013B9BB223858C
:10221000628D92B2002AE1D0002BDFD100950A9B9B
:10222000002280212046FFF74EFE002836D1638D24
:102230009BB2FF2BC6D9FF222285002300934FF0CB
:10224000807331462046FFF754FDC7E72A460A99B6
:102250002046FFF799FE034610BB22682021D1617A
:102260002068426822F0FF7222F48B3222F4FF725F
:1022700022F00102426084F84110002284F84220DA
:1022800084F8402000E00223184603B0BDE8F08344
:102290000223F9E70123F7E70123F5E70123F3E739
:1022A0000123F1E7002000802DE9F04383B090F88E
:1022B0004150EDB2202D40F0A48090F84040012C18
:1022C00000F0A480984617460E4604464FF00109D8
:1022D00080F84090FEF740FF0546009019234A46DB
:1022E0004FF400412046FFF7EEFD002840F09080BB
:1022F000222384F84130102384F8423000236364A1
:102300006762A4F82A806363638D9BB2FF2B0AD9AE
:10231000FF222285424B00934FF0807331462046C6
:10232000FFF7E7FC18E0628D92B222853C4B0093E8
:102330004FF00073D2B231462046FFF7DAFC0BE0D3
:10234000628D92B22285002300934FF00073D2B2C7
:1023500031462046FFF7CDFC638D9BB2002B33D076
:102360002A460A992046FFF737FE002852D12368F3
:102370005A6A636A1A70636A01336362238D013B90
:102380009BB22385628D013A92B26285628D92B2D0
:10239000002AE1D0002BDFD100950A9B002280218A
:1023A0002046FFF790FD002836D1638D9BB2FF2BAE
:1023B000C6D9FF222285002300934FF08073314657
:1023C0002046FFF796FCC7E72A460A992046FFF702
:1023D000DBFD034610BB22682021D16120684268E2
:1023E00022F0FF7222F48B3222F4FF7222F00102FB
:1023F000426084F84110002284F8422084F8402092
:1024000000E00223184603B0BDE8F0830223F9E799
:102410000123F7E70123F5E70123F3E70123F1E7C0
:10242000002400802DE9F04782B0BDF82C7090F8B0
:102430004150EDB2202D40F0BA800A9CDCB1D7B1FA
:1024400090F84040012C00F0B780984691460D4628
:1024500004464FF0010A80F840A0FEF77DFE0646D4
:102460000090192352464FF400412046FFF72BFD00
:1024700030B101239CE04FF400734364012397E0E3
:10248000212384F84130402384F8423000236364E0
:102490000A9A62626785636301960C9B00934346C8
:1024A0004A4629462046FFF737FD70B9638D9BB237
:1024B000FF2B0FD9FF222285002300934FF080735A
:1024C00029462046FFF715FC21E0002384F8403020
:1024D00053466DE0628D92B22285002300934FF047
:1024E0000073D2B229462046FFF703FC0FE0628D4D
:1024F00092B22285002300934FF00073D2B2294696
:102500002046FFF7F6FB638D9BB2002B32D032469C
:102510000C992046FFF7ACFC00284FD1626A236873
:1025200012789A62636A01336362638D013B9BB2E6
:102530006385238D013B9BB22385628D92B2002A75
:10254000E1D0002BDFD100960C9B00228021204699
:10255000FFF7B9FCA0BB638D9BB2FF2BC7D9FF224D
:102560002285002300934FF0807329462046FFF711
:10257000C0FBC8E732460C992046FFF705FD03462D
:1025800000BB22682021D1612068426822F0FF72DE
:1025900022F48B3222F4FF7222F00102426084F8AE
:1025A0004110002284F8422084F8402000E00223F9
:1025B000184602B0BDE8F0870223F9E70123F7E7E8
:1025C0000123F5E70123F3E72DE9F04385B000246B
:1025D000039490F84140E4B2202C40F09E800468BF
:1025E000A46914F4004F40F09D8090F84040012C05
:1025F00000F09A801E46904689460546012380F8E1
:102600004030242380F841300023436442E0C9F382
:10261000090343F0007343F4005342E02B689C69C4
:10262000C4F340149B69C3F30013B4B9ABB9B6F15A
:10263000FF3FF3D0FEF790FDC01BB04201D8002E43
:10264000ECD1202385F841306B6C43F020036B64A0
:10265000002385F84030012360E02B689B6913F06C
:10266000100F2BD000973346002220212846FFF779
:102670002AFC00285CD12B681022DA612B6820220A
:10268000DA61039B43452BD0039B01330393039BE8
:10269000434536D2EB68012BB9D0C9F3090343F4A3
:1026A00020532A685360FEF757FD07462B689C6944
:1026B000C4F340149B69C3F30013B6E70097334695
:1026C000002220212846FFF7FEFB034670BB296845
:1026D0002022CA6185F84120002285F840201DE0B3
:1026E0002A68536843F480435360009733460022BE
:1026F00020212846FFF7E7FBE0B92B682022DA61AA
:10270000C2E7202385F841306B6C43F020036B64F3
:10271000002385F84030012300E00223184605B06D
:10272000BDE8F0830223F9E70223F7E70123F5E789
:102730000123F3E70123F1E708B5036899691A68F3
:10274000436B03B1984708BD7047704710B5044606
:10275000002380F8423090F84130DBB2292B05D0BD
:1027600090F84130DBB22A2B0FD010BD282380F81F
:102770004130212303630121FFF7D6FA002384F8B7
:1027800040302046FFF7E0FFEFE7282380F8413094
:10279000222303630221FFF7C7FA002384F84030A5
:1027A0002046FFF7D2FFE0E77047F8B590F84130D8
:1027B00003F02803282B06D003680822DA610023DF
:1027C00080F84030F8BD044603689E69C6F30046B1
:1027D0009A69120C02F0FE059A68C2F30902DF68DA
:1027E00007F0FE07C168022921D185EAD21515F04C
:1027F000060F10D1816C01318164816C0229E1D115
:10280000002181640820D86184F8401031462046B8
:10281000FFF7CAFFD6E70421FFF786FA002384F802
:1028200040303A4631462046FFF7BEFFCAE7042152
:10283000FFF77AFA002384F840302A4631462046D2
:10284000FFF7B2FFBEE7704710B50446164BC362F0
:1028500000230363202280F8412080F84230436344
:1028600011F0040F12D003685A6A436A1A70436A5F
:1028700001334362038D4BB1013B0385438D013B23
:102880009BB24385436C43F0040343640721204615
:10289000FFF74AFA23681022DA61002384F84030F7
:1028A0002046FFF7D0FF10BD0000FFFF70477047C4
:1028B00010B5044690F84130002280F84220364896
:1028C000E0626285626C11436164283BDBB2022BDB
:1028D00022D803212046FFF727FA282384F8413025
:1028E000002323632D4B636323681A6812F4804F1F
:1028F00022D01A6822F480421A60A36B5BB1284A86
:102900009A63002384F84030A06BFEF79BFD10B162
:10291000A06B836B984710BD07212046FFF704FA90
:1029200094F84130DBB2602B02D0202384F8413090
:10293000002323636363D7E71A6812F4004F14D0AF
:102940001A6822F400421A60E36B002BE3D0144AA9
:102950009A63002384F84030E06BFEF773FD002893
:10296000D9D0E06B836B9847D5E794F84130DBB260
:10297000602B06D0002384F840302046FFF796FFF6
:10298000C9E7202384F84130002384F840302046F2
:10299000FFF78DFFBFE700BF0000FFFFC52A00085B
:1029A0007D2C000870B504460D4603681E68202281
:1029B000DA610721FFF7B8F92268536843F400434E
:1029C00053602268536823F0FF7323F48B3323F49E
:1029D000FF7323F0010353602046FFF779F916F4E3
:1029E000804F3AD0A36B1BB11B685B689BB26385B9
:1029F00015F0040F10D025F0040523685A6A636AA5
:102A00001A70636A01336362238D2BB1013B238506
:102A1000638D013B9BB26385638D9BB21BB1636C7D
:102A200043F0040363640023236384F84230636348
:102A3000636CEBB9E36A13F5803F27D194F841301A
:102A4000DBB2222B31D0202384F84130002384F8DC
:102A500040302046FFF778FE26E016F4004FC7D03E
:102A6000E36B002BC4D01B685B689BB26385BFE738
:102A7000616C2046FFF71CFF94F84130DBB2282B35
:102A800012D129462046FFF7DFFE0DE02046FFF772
:102A90005DFE0B4BE362202384F84130002384F871
:102AA00040302046FFF7CFFE70BD202384F8413030
:102AB000002384F840302046FFF747FEF4E700BFCC
:102AC0000000FFFF70B51646C26A90F84030012B37
:102AD00000F09D8004460D46012380F8403011F03F
:102AE000100F3FD016F0100F3CD0438D9BB24BBB64
:102AF00090F84130DBB2282B11D094F84130DBB292
:102B0000292B12D023681022DA6115F0200F02D091
:102B100016F0200F76D1002084F8400070BDB2F18D
:102B2000007FEAD1FFF790FEEFE712F5803FE9D092
:102B300023681022DA612046FFF7CAF82046FFF723
:102B400005FEE2E703681021D961436C43F00403FA
:102B5000436412B1B2F1807FD7D1616C2046FFF798
:102B6000A7FED2E715F0040F20D016F0040F1DD0F9
:102B7000638D9BB27BB125F004052368596A636AB3
:102B80001970636A01336362238D013B2385638D72
:102B9000013B9BB26385638D9BB2002BB5D112F5CF
:102BA000803FB2D02046FFF7D1FDAEE715F0080F09
:102BB00002D016F0080F17D115F0020FA5D016F0AD
:102BC000020FA2D0638D9BB29BB1626A2368127818
:102BD0009A62636A01336362638D013B9BB26385D2
:102BE000238D013B238590E729462046FFF7DDFD35
:102BF0008BE7B2F1807F01D0002A86D12046FFF713
:102C0000A5FD82E729462046FFF7CCFE83E7022098
:102C100084E710B502689369116813F4807F09D0C6
:102C200011F0800F06D0446C44F0010444644FF46A
:102C30008074D46113F4806F0AD011F0800F07D034
:102C4000426C42F00802426402684FF48064D4612E
:102C500013F4007F0AD011F0800F07D0436C43F0CB
:102C60000203436403684FF40072DA61416C11F0AF
:102C70000B0F00D110BDFFF71BFEFBE708B5806A04
:102C8000826B00239363C26B936390F84130DBB295
:102C9000602B02D0FFF70AFE08BD202380F84130E8
:102CA000FFF705FEF8E790F84130DBB2202B24D186
:102CB00090F84030012B22D0012380F840302423AB
:102CC00080F841300268136823F001031360026842
:102CD000136823F48053136002681368194311606A
:102CE0000268136843F001031360202380F8413029
:102CF000002380F8403018467047022070470220B9
:102D0000704790F84130DBB2202B22D190F8403050
:102D1000012B20D0012380F84030242380F841305B
:102D20000268136823F0010313600268136823F438
:102D3000706343EA012111600268136843F00103E4
:102D40001360202380F84130002380F8403018467B
:102D500070470220704702207047F0B587B0002806
:102D60007AD0044690F82932D3B1032384F829326B
:102D7000206802F0C9FB254655F8107B6E460FCD42
:102D80000FC62B683360231D0ECB384602F0ABFB19
:102D900058B1022384F829320125284607B0F0BD36
:102DA00080F828320BF096FEDFE70021206802F061
:102DB000B5FB002311E004EB4312012182F8291036
:102DC00082F82830D386002182F82B109163D163DA
:102DD0009A1C5201A1500133DBB260688342EAD3EE
:102DE000002312E004EB4311002281F8292181F82D
:102DF000283181F82B21C1F83821C1F83C2103F199
:102E00000A01490162500133DBB29842EAD82546F3
:102E100055F8107B6E460FCD0FC62B683360231D0F
:102E20000ECB384602F07CFB054660B9002384F8DF
:102E30002430012384F82932E369012B08D020686B
:102E400002F09EFEA9E7022384F829320125A4E7B7
:102E5000204600F0EBFBF2E701259EE790F82832D0
:102E6000012B0ED010B50446012380F828320068EB
:102E700002F07EFE206802F03DFB002084F828026C
:102E800010BD0220704790F82832012B0DD010B5EC
:102E90000446012380F8283280F82410006802F0EC
:102EA00061FE002084F8280210BD0220704770B532
:102EB00011F0800F23D101F007056D0105F5947421
:102EC00004440544002685F8296101F007012170BA
:102ED0002261E370627802B1E181022B1AD090F88E
:102EE0002832012B19D00546012380F828322146CB
:102EF000006802F02BFB002085F8280270BD01F06D
:102F000007056D0105F1280404440544012685F8F0
:102F10002960DAE700232371E1E70220EEE710B52C
:102F200011F0800F1CD101F007035B0103F59472CF
:102F300002440344002483F8294101F0070313707D
:102F400090F82832012B16D00446012380F828324D
:102F50001146006802F0A5FC002084F8280210BD8C
:102F600001F007035B0103F128020244034401243A
:102F700083F82940E1E70220F1E770B501F0070589
:102F80006C0104F5947101440444C4F83C2105F13A
:102F90000A025201861883500023736084F8293195
:102FA00084F8285125B1006802F00CFE002070BDA5
:102FB000006802F007FEF9E701F007010A3100EBB3
:102FC00041114868704770B501F007056C0104F1C4
:102FD000280101440444E263AA1C5201861883506C
:102FE00000237360012384F8293084F8285025B128
:102FF000006802F0E7FD002070BD006802F0E2FD0D
:10300000F9E7F8B504462068B0F8443013F4004FEF
:1030100000F09581B0F844309BB213F00F0540F0FA
:10302000BD8013F0100F52D003889BB213F4006FD1
:1030300040F0818013F4004FE5D0038823F0700343
:103040001B051B0D43F0800303802068B0F850304F
:1030500094F8282103EBC2030344B3F80634C3F306
:103060000903C4F844318BB1D4F83C1171B1B4F800
:103070002E2102F000FFD4F84421D4F83C3113444F
:10308000C4F83C31002120460BF04CFD2368B3F816
:1030900050201344D4F83821002A6CD1B3F8062408
:1030A00022F4F8426FEA42426FEA5242A3F8062441
:1030B000226813889BB223F4804323F0700383F4C7
:1030C000405343F4004343F0800313809BE703889D
:1030D0009BB223F4E14323F070036FEA43436FEAAA
:1030E00053439BB203802268B2F8503094F8281002
:1030F00003EBC1031344B3F80234C3F3090363645D
:10310000E26B1344E363002120460BF015FD94F8B5
:103110002430002B3FF477AF236C002B7FF473AF88
:1031200094F82430226843F08003A2F84C30002346
:1031300084F8243067E7B0F8503094F8282103EB86
:10314000C2030344B3F80634C3F30903C4F844319B
:10315000B4F82E2104F50C7102F08DFE226813885C
:1031600023F070031B051B0D43F0800313802046E2
:103170000BF0D0FC47E73D2A08D8510812F0010FA8
:1031800000D001318902A3F8061491E752096FEAD1
:10319000C2626FEA5242A3F8062489E730F825603C
:1031A000B6B216F4004F31D116F0800F3FF42BAFBA
:1031B000226832F825309BB223F4E14323F07003F8
:1031C0006FEA43436FEA53439BB222F825302268EB
:1031D000B2F8503004EB451090F8281003EBC1030F
:1031E0001344B3F80224C2F30902AB1C5B01E118DB
:1031F0004A60C16B0A44C263E358002B40F09780D9
:1032000090F8281020460BF097FCFCE630F82530AB
:1032100023F070031B051B0D43F0800320F82530BD
:1032200004EB451393F83431C3B92068B0F850303B
:1032300004EB451292F8282103EBC2030344B3F8D0
:103240000674C7F309077FB304EB45113B46B1F899
:103250002E21D1F83C1102F00EFE25E0206804EB8F
:10326000451393F8282130F8223013F4804F41D0D1
:10327000B0F8503003EBC2030344B3F80274C7F351
:1032800009076FBB226804EB451393F8281132F845
:1032900021309BB223F4E04323F0700343F4004356
:1032A00043F0C00322F8213005F10A035B01E11865
:1032B0004A683A444A6004EB4511D1F83C213A444B
:1032C000C1F83C21E3581BB1D1F838118F4226D206
:1032D00004EB451393F8281120460BF023FC63E719
:1032E00004EB45113B46B1F83021D1F83C1102F016
:1032F000C2FDC7E7B0F8503003EBC2030344B3F894
:103300000674C7F30907002FBCD004EB45113B46F8
:10331000B1F83221D1F83C1102F0ADFDB2E704EB77
:10332000451191F828112046FFF727FE3CE704EBF2
:10333000451595F828102046FFF745FE63E6002066
:10334000F8BD10B50446006802F022FC10F4004FEE
:1033500040F09880206802F01BFC10F4806F40F071
:103360009580206802F014FC10F4804F08D0226889
:10337000B2F844309BB223F480439BB2A2F84430AD
:10338000206802F005FC10F4005F08D02268B2F853
:1033900044309BB223F400539BB2A2F8443020681F
:1033A00002F0F6FB10F4805F21D02268B2F84030C2
:1033B0009BB223F004039BB2A2F840302268B2F81B
:1033C00040309BB223F008039BB2A2F8403094F83F
:1033D0006032012B6BD020460BF0DEFB2268B2F886
:1033E00044309BB223F480539BB2A2F8443020684F
:1033F00002F0CEFB10F4006F60D1206802F0C8FB31
:1034000010F0800F28D02268B2F844309BB223F02D
:1034100080039BB2A2F8443094F86032002B6ED146
:103420002268B2F8403043F00403A2F8403022682A
:10343000B2F8403043F00803A2F84030012184F88C
:1034400060122368B3F854309B0803F03C03C4F8BF
:10345000643220460BF086FC206802F099FB10F4E1
:10346000007F50D1206802F093FB10F4807F08D0D9
:103470002268B2F844309BB223F480739BB2A2F866
:10348000443010BD2046FFF7BCFD63E72268B2F868
:1034900044309BB223F480639BB2A2F844302046B0
:1034A0000BF059FB00212046FFF7EDFC59E7002106
:1034B00084F8601220460BF055FC8CE72268B2F8C5
:1034C000403043F00803A2F840302268B2F844309C
:1034D0009BB223F400639BB2A2F844302268B2F896
:1034E000403043F00403A2F84030206802F050FB63
:1034F00010F4805F81D120460BF03EFB7DE7204633
:103500000BF03AFBA8E72268B2F844309BB223F4F0
:1035100000739BB2A2F8443020460BF016FBA1E7E3
:1035200038B501F0070543689D422CD811F0800F93
:103530001AD14B0103F5947101440344002283F82E
:10354000292101238B700D7090F82832012B1CD09B
:103550000446012380F82832006802F08DFA65B134
:10356000002084F828020FE06B0103F128010144D8
:103570000344012283F82920E3E704F50C71206855
:1035800002F009FBECE7012038BD0220FCE701F066
:103590000F0243689A422DD810B511F0800F1ED14A
:1035A00001F007035B0103F5947202440344002415
:1035B00083F829410023937001F00703137090F8FA
:1035C0002832012B18D00446012380F828321146F6
:1035D000006802F076FA002084F8280210BD01F09D
:1035E00007035B0103F1280202440344012483F82A
:1035F0002940DFE7012070470220EFE711F0800F3C
:103600000CD001F007014901283101445AB10122CF
:103610000A730B811B0C4B8100207047490101F597
:1036200094710144F2E70A73CB80F5E70246036820
:103630000121C0F86812002082F86002B3F854201B
:103640000A43A3F85420B3F8542042F00202A3F82E
:1036500054207047024B186800F4C060704700BFE8
:1036600000700040B0F5007F0FD01F4B1B6803F4C3
:10367000C063B3F5806F34D01B4A136823F4C06372
:1036800043F48063136000207047174B1B6803F4FA
:10369000C063B3F5007F22D0134A136823F4C063DC
:1036A00043F400731360114B1A68322303FB02F3D7
:1036B0000F4AA2FB03239B0C013300E0013B0A4AA3
:1036C000526912F4806F01D0002BF7D1064B5B6971
:1036D00013F4806F01D10020704703207047002051
:1036E00070470020704700BF007000409C0200201F
:1036F00083DE1B43024A536843F480635360704780
:103700000070004030B583B00546204B9B6D13F030
:10371000805F0BD0FFF79EFFB0F5007F17D0802DA4
:103720001FD82DD0702D2DD000211BE0174CA36D7C
:1037300043F08053A365A36D03F080530193019B75
:10374000FFF788FFA36D23F08053A365E4E7802D86
:1037500003D9A02D03D9022104E0002102E00121B8
:1037600000E003210A4A136823F007030B431360A8
:10377000136803F007038B4206D0012003B030BD6D
:103780000221EFE70121EDE70020F7E700100240FA
:1037900000200240284A9368D26802F0030213F026
:1037A0000C030AD00C2B06D0042B1FD0082B20D0E2
:1037B0000020024610E0012AF6D11F4A126812F0DA
:1037C000080F0CD11C4AD2F89420C2F303221B49E3
:1037D00051F8222043B100200C2B0DD07047164A1F
:1037E0001268C2F30312F2E71046F5E7144800220C
:1037F000F2E714480022EFE70F4BDB6803F0030306
:10380000022B15D0032B15D00B4BD868C0F3021038
:103810000130D968C1F3062102FB01F2B2FBF0F2DC
:10382000D868C0F3416001304000B2FBF0F0D5E74A
:10383000034AE9E7034AE7E700100240784A010833
:103840000024F400001BB700002800F00883F0B546
:1038500083B00446AD4B9D6805F00C05DE6806F0AC
:103860000306036813F0100F5ED0E5B10C2D18D0DD
:10387000A369002B00F0B880A44A136843F0010349
:103880001360FDF769FC0746A04B1B6813F0020F9D
:1038900040F09780FDF760FCC01B0228F4D9032399
:1038A000E9E2012EE4D1994B1B6813F0020F03D01B
:1038B000A369002B00F0D682206A944B1B6813F09A
:1038C000080F5ED0914B1B6803F0F00398425FD95C
:1038D000FFF718FF002840F0C7828C4B1A6842F0AF
:1038E00008021A601A6822F0F002216A0A431A607C
:1038F0005A6822F47F42E16942EA01225A60FFF7E6
:1039000049FF824B9B68C3F30313814AD35C03F0E6
:103910001F03D8407F4B18607F4B1868FDF7DAFB18
:103920000346002840F0A782236813F0010F7AD0E5
:10393000082D6FD00C2D6BD06368B3F5803F00F07D
:103940009180B3F5A02F00F09380704B1A6822F499
:1039500080321A601A6822F480221A606368002B91
:1039600000F09380FDF7F8FB0746684B1B6813F4E3
:10397000003F58D1FDF7F0FBC01B6428F5D90323A5
:1039800079E2624BD3F894301B0903F0F0039DE712
:103990005E4B1A6842F008021A601A6822F0F002C0
:1039A000216A0A431A605A6822F47F42E16942EAB6
:1039B00001225A60206AFFF7A5FE00289FD001234C
:1039C00059E2524B1A6842F008021A601A6822F053
:1039D000F002216A0A431A605A6822F47F42E169C0
:1039E00042EA01225A609FE7484A136823F0010324
:1039F0001360FDF7B1FB0746444B1B6813F0020F41
:103A000092D0FDF7A9FBC01B0228F5D9032332E2AF
:103A1000032E91D13D4B1B6813F4003F03D0636824
:103A2000002B00F02382236813F0020F4FD0042DE7
:103A30003CD00C2D38D0E368002B78D0334A136883
:103A400043F480731360FDF787FB06462F4B1B681A
:103A500013F4806F62D1FDF77FFB801B0228F5D93C
:103A6000032308E2294A136843F48033136075E79F
:103A700003F18043A3F53C331A6842F480221A60B4
:103A80001A6842F480321A6068E7FDF765FB074662
:103A90001E4B1B6813F4003FC5D0FDF75DFBC01B38
:103AA0006428F5D90323E6E1022EC4D1174B1B6825
:103AB00013F4806F03D0E368002B00F0D981134A20
:103AC000536823F0F853216943EA01635360236884
:103AD00013F0080F56D06369002B3CD00B4AD2F884
:103AE000943043F00103C2F89430FDF735FB0646ED
:103AF000064BD3F8943013F0020F43D1FDF72CFBA3
:103B0000801B0228F4D90323B5E100BF0010024056
:103B1000A84A01089C02002004000020B64A53680D
:103B200023F0F853216943EA01635360CFE7B24AB7
:103B3000136823F480731360FDF70EFB0646AE4B4B
:103B40001B6813F4806FC2D0FDF706FB801B0228B0
:103B5000F5D903238FE1A84AD2F8943023F001036A
:103B6000C2F89430FDF7F8FA0646A34BD3F8943028
:103B700013F0020F06D0FDF7EFFA801B0228F4D9EC
:103B8000032378E1236813F0040F7AD09A4B9B6DDE
:103B900013F0805F0BD1984B9A6D42F080529A657A
:103BA0009B6D03F080530193019B012600E00026EA
:103BB000924B1B6813F4807F26D0A368012B37D06B
:103BC000052B3DD08C4BD3F8902022F00102C3F896
:103BD0009020D3F8902022F00402C3F89020A3682C
:103BE000002B3BD0FDF7B8FA0746834BD3F8903053
:103BF00013F0020F44D1FDF7AFFAC01B41F2883336
:103C00009842F2D9032336E17C4A136843F4807367
:103C10001360FDF7A1FA0746784B1B6813F4807F09
:103C2000CBD1FDF799FAC01B0228F5D9032322E175
:103C3000714AD2F8903043F00103C2F89030CEE7D9
:103C40006D4BD3F8902042F00402C3F89020D3F8D3
:103C5000902042F00102C3F89020C0E7FDF77CFA03
:103C60000746654BD3F8903013F0020F08D0FDF7EC
:103C700073FAC01B41F288339842F2D90323FAE069
:103C8000E6B9236813F0200F35D0636AE3B15A4ACE
:103C9000D2F8983043F00103C2F89830FDF75CFA8F
:103CA0000646554BD3F8983013F0020F23D1FDF799
:103CB00053FA801B0228F4D90323DCE04E4A936DAB
:103CC00023F080539365DCE74B4AD2F8983023F019
:103CD0000103C2F89830FDF73FFA0646464BD3F889
:103CE000983013F0020F06D0FDF736FA801B022839
:103CF000F4D90323BFE0A36A002B00F0BB800C2D96
:103D00006FD0022B23D03C4B1A6822F080721A60CD
:103D10001B6813F0006F04D1374AD36823F0030304
:103D2000D360354AD36823F0887323F48033D3609B
:103D3000FDF712FA0446304B1B6813F0007F4ED09B
:103D4000FDF70AFA001B0228F5D9032393E02A4A5B
:103D5000136823F080731360FDF7FEF90546264BC8
:103D60001B6813F0007F06D0FDF7F6F9401B022810
:103D7000F5D903237FE0204AD36821491940E36A3B
:103D8000206B013843EA0013606B43EA0023E06BC9
:103D90004008013843EA4053206C4008013843EAA8
:103DA0004063A06B43EAC0630B43D360136843F0E6
:103DB00080731360D36843F08073D360FDF7CCF950
:103DC00004460D4B1B6813F0007F06D1FDF7C4F9C4
:103DD000001B0228F5D903234DE000234BE000230C
:103DE00049E0012B4AD0044BDB6803F00301E26A8F
:103DF000914207D001233EE00010024000700040D5
:103E00008C809D0103F07002216B0139B2EB011F20
:103E100001D001232FE003F4FE42616BB2EB012FCE
:103E200001D0012327E003F07842A16BB2EBC16F10
:103E300001D001231FE003F4C001E26B5208013AF4
:103E4000B1EB425F01D0012315E003F0C063226CA7
:103E50005208013AB3EB426F12D001230BE0012369
:103E600018467047012306E0012304E0012302E025
:103E7000012300E00023184603B0F0BD0123FAE758
:103E80000023F8E7002800F09B8070B504464E4BF5
:103E90001B6803F007038B420CD24B4A136823F0D4
:103EA00007030B431360136803F007038B4201D031
:103EB000012070BD0D46236813F0010F39D06368EF
:103EC000032B09D0022B26D063BB404A126812F0A4
:103ED000020F06D10120ECE73C4A126812F0007F85
:103EE00070D03A498A6822F0030213438B60FDF7D1
:103EF00033F90646354B9B6803F00C036268B3EB5D
:103F0000820F16D0FDF728F9801B41F288339842C2
:103F1000F0D90320CDE72D4A126812F4003FE0D11A
:103F20000120C6E7294A126812F4806FD9D1012016
:103F3000BFE7236813F0020F06D0244A936823F0EA
:103F4000F003A1680B4393601F4B1B6803F007034A
:103F5000AB420CD91C4A136823F007032B431360B0
:103F6000136803F00703AB4201D00120A1E72368E7
:103F700013F0040F06D0154A936823F4E063E16858
:103F80000B439360236813F0080F07D00F4A936820
:103F900023F46053216943EAC1039360FFF7FAFBFE
:103FA0000A4B9B68C3F30313094AD35C03F01F0356
:103FB000D840084B1860084B1868FDF78BF878E775
:103FC00001207047012074E70020024000100240E9
:103FD000A84A01089C02002004000020014B186838
:103FE000704700BF9C02002008B5FFF7F7FF054BA4
:103FF0009B68C3F30223044AD35C03F01F03D84039
:1040000008BD00BF00100240B84A010808B5FFF71C
:10401000E5FF054B9B68C3F3C223044AD35C03F05E
:104020001F03D84008BD00BF00100240B84A010875
:10403000F8B5594BDB6813F0030F18D0564BDB680B
:1040400003F003030268934202D001252846F8BD1D
:10405000002A00F09F80504BDB68C3F3021301334A
:104060004268934201D00125F0E700251AE0036879
:10407000022B58D0032B5DD0012B01D001250FE07E
:10408000454A126812F0020F60D0434DEA6822F0F0
:1040900073024468013C43EA04131343EB600025B8
:1040A000002DD3D10F4604463B4A136823F08063AA
:1040B0001360FDF751F80646374B1B6813F0006F8D
:1040C00005D0FDF749F8801B0228F5D90325002DFE
:1040D000BCD1002F3CD130490B6923F0784323F445
:1040E000FE43A068E268D20642EA002213430B6155
:1040F000294A136843F080631360FDF72DF80646E4
:10410000254B1B6813F0006F05D1FDF725F8801BC8
:104110000228F5D90325002D98D11F4A1369A169FA
:104120000B43136192E71C4A126812F4806FACD102
:104130000125B5E7184A126812F4003FA5D1164AC6
:10414000126812F4802FA0D10125A9E70125A7E765
:10415000012F0FD01048026922F0C06222F4FE4203
:10416000A16863695B08013B5B0643EA01231343D3
:104170000361BDE70848026922F4C00222F4FE424E
:10418000A16823695B08013B5B0543EA01231343F4
:104190000361ADE7012559E7001002402DE9F04128
:1041A00082B00446036813F4006F26D0436CB3F565
:1041B000000F06D0B3F5400F1DD09BB10126374646
:1041C0001DE0BD4AD36843F48033D3600027BA4A68
:1041D000D2F8883023F44003616C0B43C2F8883076
:1041E00000260CE000210430FFF722FF07460028DC
:1041F000EDD0064603E00027E9E7002637462368AE
:1042000013F4003F6BD0AC4B9B6D13F0805F4CD12F
:10421000A94B9A6D42F080529A659B6D03F08053D2
:104220000193019B4FF00108A44A136843F4807383
:104230001360FCF791FF0546A04B1B6813F4807FC9
:1042400005D1FCF789FF401B0228F5D90327002F71
:1042500040D1994BD3F8903013F4407315D0E26DF0
:104260009A4212D0944AD2F8903023F44073D2F894
:10427000901041F48031C2F89010D2F8901021F4DF
:104280008031C2F89010C2F8903013F0010F0FD1B6
:10429000002F40F0F780884AD2F8903023F4407322
:1042A000E16D0B43C2F8903015E04FF00008BBE71A
:1042B000FCF752FF0546804BD3F8903013F0020F05
:1042C000E6D1FCF749FF401B41F288339842F2D90E
:1042D0000327DDE73E46B8F1000F40F0D5802368A4
:1042E00013F0010F08D0744AD2F8883023F003038A
:1042F000216A0B43C2F88830236813F0020F08D0FC
:104300006D4AD2F8883023F00C03616A0B43C2F87F
:104310008830236813F0040F08D0674AD2F8883039
:1043200023F03003A16A0B43C2F88830236813F0EE
:10433000200F08D0604AD2F8883023F44063E16A45
:104340000B43C2F88830236813F4007F08D05A4A20
:10435000D2F8883023F44023E16B0B43C2F8883055
:10436000236813F4806F08D0534AD2F8883023F4BE
:104370004013216C0B43C2F88830236813F0400FC0
:1043800008D04D4AD2F8883023F44053216B0B43B8
:10439000C2F88830236813F0800F08D0464AD2F85C
:1043A000883023F44043616B0B43C2F888302368A4
:1043B00013F4807F08D0404AD2F8883023F4403389
:1043C000A16B0B43C2F88830236813F4005F0FD051
:1043D000394AD2F8883023F04063A16C0B43C2F80D
:1043E0008830A36CB3F1006F54D0B3F1806F56D016
:1043F000236813F4002F0FD02F4AD2F8883023F00F
:104400004063E16C0B43C2F88830E36CB3F1006F9A
:104410004DD0B3F1806F53D0236813F4802F0FD0A9
:10442000254AD2F8883023F04063216D0B43C2F84F
:104430008830236DB3F1006F4AD0B3F1806F4CD058
:10444000236813F4804F0CD01B4AD2F8883023F035
:104450004053616D0B43C2F88830636DB3F1805FE8
:1044600043D0236813F4004F08D0134AD2F88830A1
:1044700023F08043A16D0B43C2F88830304602B070
:10448000BDE8F0813E4626E70B4A936D23F080534A
:10449000936524E7D36843F48013D360A8E7012130
:1044A000201DFFF7C5FD0028A2D00646A0E7D3686F
:1044B00043F48013D360AFE7001002400070004067
:1044C0000121201DFFF7B4FD0028A5D00646A3E773
:1044D000D36843F48013D360B2E70121201DFFF7B6
:1044E000A7FD0028ACD00646AAE70221201DFFF751
:1044F0009FFD0028B5D00646B3E700BFF8B50546D6
:104500000F4616461C462B689B6837EA03030CBF10
:1045100001230023B34237D0B4F1FF3FF3D0FCF7BF
:104520001BFE069BC01AA04201D2002CEBD12A68C8
:10453000536823F0E00353606B68B3F5827F0BD0C0
:10454000AB6AB3F5005F14D0012385F85D3000231A
:1045500085F85C30032018E0AB68B3F5004F02D05B
:10456000B3F5806FECD12A68136823F04003136021
:10457000E6E72A68136823F4005313602A68136877
:1045800043F400531360DFE70020F8BDF8B5074699
:104590000C4615461E4602E0B6F1FF3F0BD13A68C5
:1045A00093682340AB423BD0B4F5C06FF4D1002DEB
:1045B000F2D1137BF0E7FCF7CFFD069BC01AB042A7
:1045C00001D2002EEBD13A68536823F0E003536028
:1045D0007B68B3F5827F0BD0BB6AB3F5005F14D064
:1045E000012387F85D30002387F85C30032018E052
:1045F000BB68B3F5004F02D0B3F5806FECD13A68D9
:10460000136823F040031360E6E73A68136823F465
:10461000005313603A68136843F400531360DFE7F4
:104620000020F8BD70B582B004460D4616460092D3
:104630000B4600224FF4C051FFF7A8FFB8B900960F
:104640002B46002280212046FFF758FFB8B900967C
:104650002B4600224FF4C0612046FFF797FF034628
:1046600050B1236E43F020032366032304E0236E3E
:1046700043F0200323660323184602B070BD236E67
:1046800043F0200323660323F6E7002853D010B538
:1046900004460023836290F85D30002B40D0022353
:1046A00084F85D302268136823F040031360E368E8
:1046B000B3F5E06F39D90022B3F5706F04D0B3F5CC
:1046C000E06F01D00021A162216B21B9B3F5E06F49
:1046D0002ED9022323636368A1680B4321690B432E
:1046E00061690B43A16901F400710B43E1690B435C
:1046F000216A0B43A06A216803430B60638B03F0BC
:104700000403616A0B43616B0B43E1680B4321684F
:1047100013434B6000202066012384F85D3010BDF8
:1047200080F85C3009F020FDB9E74FF48052C3E710
:1047300001232363CFE7012070472DE9F04182B0C8
:1047400090F85C40012C00F0E4801E461546884637
:104750000446012380F85C30FCF7FEFC074694F821
:104760005D20D2B2012A09D00220012384F85D30F5
:10477000002384F85C3002B0BDE8F081B8F1000F8E
:1047800000F0B980002D00F0B880032384F85D307C
:1047900000232366C4F83880A587E5872364A4F83E
:1047A0004430A4F846302365E364A368B3F5004FB2
:1047B0001CD023681A6812F0400F03D11A6842F027
:1047C00040021A60E368B3F5E06F33D963680BB158
:1047D000012D1BD1A26B23681288DA60A36B023310
:1047E000A363E38F013B9BB2E3870FE0226813686A
:1047F00043F480431360DCE7FCF7AEFCC01BB0421F
:1048000002D3B6F1FF3F7AD1002E7AD0E38F9BB26C
:10481000002B5BD023689A6812F0020FECD0A26BD9
:104820001288DA60A36B0233A363E38F013B9BB270
:10483000E387EBE763680BB1012D30D1E38F9BB2C7
:10484000012B0BD9A26B23681288DA60A36B0233A9
:10485000A363E38F023B9BB2E38720E0A26B236854
:1048600012781A73A36B0133A363E38F013B9BB2EE
:10487000E38714E0A36B1B781373A36B0133A3636B
:10488000E38F013B9BB2E38709E0FCF765FCC01BAB
:10489000B04202D3B6F1FF3F35D1002E35D0E38FC1
:1048A0009BB29BB12268936813F0020FEDD0E38FA7
:1048B0009BB2012BDED9A36B1B88D360A36B0233A1
:1048C000A363E38F023B9BB2E387E8E73A463146B6
:1048D0002046FFF7A7FE08B120232366A36833B95B
:1048E00001932368DA6801929B680193019B236E10
:1048F0006BB9002039E7012037E7012035E70320B5
:1049000033E7032031E703202FE703202DE70120C1
:104910002BE702202FE7704730B585B004460268C8
:1049200050689368C3F3801149B913F0010F06D0A2
:1049300010F0400F03D0E36C2046984708E013F0D6
:10494000020F07D010F0800F04D0236D2046984747
:1049500005B030BDC3F340151DB911B913F4807F04
:10496000F6D010F0200FF3D079B194F85D10C9B2F1
:10497000032953D0216E41F00401216600210091EA
:10498000D168009191680091009965B1216E41F064
:10499000010121660021029191680291116821F0C4
:1049A00040011160029A13F4807F09D0236E43F016
:1049B000080323660023039323689B680393039BE8
:1049C000236E002BC4D02268536823F0E0035360A9
:1049D000012384F85D3010F0030F27D0226853685C
:1049E00023F003035360A36D4BB1124A9A63A06D89
:1049F000FCF728FD18B1236E43F040032366636D76
:104A0000002BA5D00B4A9A63606DFCF71BFD0028B4
:104A10009ED0236E43F04003236699E70023019361
:104A2000D368019393680193019B91E72046FFF7B8
:104A300072FF8DE7394A000808B5806A0023A0F8A4
:104A40004630C387FFF767FF08BD00000268D368E0
:104A500043F00103D36002689168064B0B40062BBC
:104A600006D0B3F5803F03D0136843F00103136011
:104A7000002070470700010070477047704770477B
:104A800010B5044603681A6912F0020F11D0DA68F3
:104A900012F0020F0DD06FF002021A6101230377AA
:104AA00003689B6913F0030F79D0FFF7E6FF00233B
:104AB000237723681A6912F0040F12D0DA6812F013
:104AC000040F0ED06FF004021A61022323772368CB
:104AD0009B6913F4407F68D02046FFF7CEFF002388
:104AE000237723681A6912F0080F12D0DA6812F0DF
:104AF000080F0ED06FF008021A6104232377236891
:104B0000DB6913F0030F57D02046FFF7B6FF0023F1
:104B1000237723681A6912F0100F12D0DA6812F0A6
:104B2000100F0ED06FF010021A610823237723684C
:104B3000DB6913F4407F46D02046FFF79EFF002339
:104B4000237723681A6912F0010F03D0DA6812F094
:104B5000010F3FD123681A6912F0800F03D0DA6881
:104B600012F0800F3DD123681A6912F4807F03D0C0
:104B7000DA6812F0800F3BD123681A6912F0400FF7
:104B800003D0DA6812F0400F39D123681A6912F0A5
:104B9000200F03D0DA6812F0200F37D110BDFFF7D5
:104BA0006BFF2046FFF76AFF81E72046FFF764FFAF
:104BB0002046FFF763FF92E72046FFF75DFF2046A0
:104BC000FFF75CFFA3E72046FFF756FF2046FFF7FD
:104BD00055FFB4E76FF001021A61204606F0BCFFF2
:104BE000B8E76FF080021A61204600F069F8BAE772
:104BF0006FF480721A61204600F063F8BCE76FF032
:104C000040021A612046FFF73AFFBEE76FF020022C
:104C10001A61204600F053F8C0E7000003681A4A02
:104C2000904202D0B0F1804F03D123F070034A6864
:104C30001343154A90420AD0B0F1804F07D002F5D5
:104C4000A052904203D002F58062904203D123F437
:104C50004073CA68134323F080034A691343036017
:104C60008B68C3620B688362074B984207D003F5D9
:104C7000A053984203D003F58063984201D10B6999
:104C80000363012343617047002C0140A8B110B5B4
:104C9000044690F83D305BB1022384F83D30211D7D
:104CA0002068FFF7BBFF012384F83D30002010BDD2
:104CB00080F83C3009F0D2FDEEE7012070477047E4
:104CC000704770470268136823F49073136002689A
:104CD000936823F001039360202383670023036616
:104CE000704708B501680A6822F040020A60202275
:104CF00042670022426605F0EBFE08BD38B5044667
:104D00000268D3691168906813F00F050CD113F095
:104D1000200F09D011F0200F06D0236E002B00F0D9
:104D20009380204698478FE0002D6FD010F001054A
:104D300002D111F4907F69D013F0010F07D011F464
:104D4000807F04D001201062E26F0243E26713F01B
:104D5000020F07D035B1226802201062E26F42F0E4
:104D60000402E26713F0040F07D035B12268042073
:104D70001062E26F42F00202E26713F0080F09D0FE
:104D800011F0200F00D12DB1226808201062E26FCF
:104D90000243E267E26F002A56D013F0200F06D0DC
:104DA00011F0200F03D0236E0BB120469847E26F1D
:104DB00023689B6813F0400F02D112F0080F1FD038
:104DC0002046FFF77FFF23689A6812F0400F13D048
:104DD0009A6822F040029A60E36E4BB11D4A9A63D2
:104DE000E06EFCF72FFB78B3E06E836B98472BE007
:104DF000204605F065FE27E0204605F061FE23E031
:104E0000204605F05DFE0023E3671DE013F4801FDC
:104E100002D010F4800F0AD113F0800F0ED011F0E1
:104E2000800F0BD0636E7BB1204698470CE04FF4A7
:104E300080131362204600F055FB05E013F0400F8D
:104E400002D011F0400F00D138BD2046FFF749FFD6
:104E5000FAE700BF594E000808B5806A0023A0F8A1
:104E60005A30A0F8523005F02BFE08BD2DE9F0486D
:104E70000446016883680269134342691343C269A7
:104E8000134308689E4A024013430B60226853682C
:104E900023F44053E1680B435360A1692268994BA6
:104EA0009A4201D0236A1943936823F430630B4379
:104EB00093602368944A93421FD0944A934230D01F
:104EC000934A934246D08F4A934259D010258D4A37
:104ED000934276D0E369B3F5004F00F0ED80082DE2
:104EE00000F28981DFE815F049015F01690187015E
:104EF00074018701870187017E0102F55842D2F8CB
:104F0000882002F00302032A09D8DFE802F0020435
:104F100052060125DBE70425D9E70825D7E7102548
:104F2000D5E702F5E632D2F8882002F00C020C2A0E
:104F30000ED8DFE802F0070D0D0D090D0D0D400D27
:104F40000D0D0B000025C2E70425C0E70825BEE7CC
:104F50001025BCE702F5E432D2F8882002F03002D6
:104F6000102A09D005D9202A27D0302A06D10825B1
:104F7000ADE71AB90025AAE70425A8E71025A6E79A
:104F800002F5C832D2F8882002F44062B2F5806F90
:104F90000BD007D9B2F5006F11D0B2F5406F06D132
:104FA000082594E71AB9002591E704258FE7102515
:104FB0008DE702258BE7022589E7022587E7022591
:104FC00085E7082D00F21A81DFE815F00C001801C2
:104FD00014001801110018011801180109004FF4FC
:104FE000004008E0FFF700F828B90020D6E0FEF7FF
:104FF000D1FBF9E74748626802EB4203834200F2C3
:10500000FF80B0EB023F00F2FD80082D51D8DFE8B1
:1050100005F005502050305050504300FEF7E4FF9B
:105020000025070E0602626850082B4616EB000B9F
:1050300047F1000C58466146FBF7E8FD0346284659
:10504000A3F54071344A914200F2DE802268D360B9
:10505000A4E0560800252B46DFF8C0B04FF0000C46
:105060001BEB06004CF10001FBF7D0FD0346284680
:10507000E6E7FEF78FFB0025070E06026268500880
:105080002B4616EB000B47F1000C58466146FBF728
:10509000BDFD03462846D3E75008002700252B46D0
:1050A00010F5000047F10001FBF7B0FD034628466C
:1050B000C6E701200023C3E7082D5BD8DFE805F031
:1050C00005303B5A465A5A5A5100FEF78DFF626826
:1050D000530803EB4003B3FBF2F39BB20020A3F1B0
:1050E00010014FF6EF72914200F290809AB222F0D6
:1050F0000F02C3F3420313432268D3604EE000BFA4
:10510000F369FFEF00800040003801400044004098
:10511000004800400024F400FFFC0F00000024F4CD
:10512000FEF774FF6268530803EB4003B3FBF2F32E
:105130009BB20020D3E76268530803F1F47303F5D0
:105140009043B3FBF2F39BB20020C8E7FEF722FBCB
:105150006268530803EB4003B3FBF2F39BB20020F9
:10516000BDE76268530803F58033B3FBF2F39BB2EB
:105170000020B4E701200023B1E7FEF735FF6368A4
:1051800000EB5302B2FBF3F292B20020A2F1100145
:105190004FF6EF7399423BD82368DA60002222660B
:1051A0006266BDE8F088FEF731FF636800EB5302EA
:1051B000B2FBF3F292B20020E8E763685A0802F506
:1051C000740202F51052B2FBF3F292B20020DDE756
:1051D000FEF7E0FA636800EB5302B2FBF3F292B21F
:1051E0000020D3E763685A0802F50042B2FBF3F2ED
:1051F00092B20020CAE701200022C7E70120CDE7D4
:105200000120CBE70120C9E70120C7E70120C5E75E
:105210000120C3E7436A13F0010F06D00268536808
:1052200023F40033816A0B435360436A13F0020F87
:1052300006D00268536823F48033C16A0B4353607D
:10524000436A13F0040F06D00268536823F48023E6
:10525000016B0B435360436A13F0080F06D00268DA
:10526000536823F40043416B0B435360436A13F0CC
:10527000100F06D00268936823F48053816B0B43B0
:105280009360436A13F0200F06D00268936823F4FA
:105290000053C16B0B439360436A13F0400F0AD075
:1052A0000268536823F48013016C0B435360036C52
:1052B000B3F5801F0BD0436A13F0800F06D002684D
:1052C000536823F40023816C0B43536070470268DA
:1052D000536823F4C003416C0B435360EBE72DE9A3
:1052E000F04105460F4616469846069C2B68DB693A
:1052F00037EA03030CBF01230023B3421CD1B4F1EE
:10530000FF3FF3D0FBF728FFA0EB0800A04201D835
:10531000002CEBD12A68136823F4D07313602A6839
:10532000936823F00103936020236B67AB6700232E
:1053300085F87030032000E00020BDE8F0812DE901
:10534000F04182B01E46436F202B55D104460D46D6
:105350009046002955D0002A55D090F87030012B86
:1053600053D0012380F870300023C36721234367A3
:10537000FBF7F2FE0746A4F85080A4F85280A36819
:10538000B3F5805F02D04FF0000813E0236913B13A
:105390004FF000080EE0A84600250BE038F8023B6D
:1053A0002268C3F308031385B4F85230013B9BB263
:1053B000A4F85230B4F852309BB273B100963B4619
:1053C000002280212046FFF78AFF00BB002DE5D098
:1053D000236815F8012B1A85E6E700963B46002264
:1053E00040212046FFF77BFF034690B920226267E9
:1053F000002284F8702000E00223184602B0BDE8C5
:10540000F0810123F9E70123F7E70223F5E70323FE
:10541000F3E70323F1E730B583B004460023C36705
:10542000FBF79AFE054623681B6813F0080F0CD1A2
:1054300023681B6813F0040F15D120236367A3674B
:10544000002084F8700003B030BD6FF07E430093FD
:10545000034600224FF400112046FFF740FF0028CA
:10546000E6D00320EFE76FF07E4300932B46002247
:105470004FF480012046FFF732FF0028DDD00320E3
:10548000E1E768B310B50446436F03B324236367B1
:105490002268136823F0010313602046FFF7E6FC3F
:1054A000012813D0636ABBB92268536823F4904380
:1054B00053602268936823F02A039360226813687C
:1054C00043F0010313602046FFF7A5FF10BD80F8ED
:1054D000703009F01BFAD9E72046FFF79BFEE3E79F
:1054E00001207047704784B001A880E80E000020BA
:1054F00004B07047B0F8403043F43F4343F08003BA
:10550000A0F8403000207047B0F8403023F47E53BC
:105510005B045B0CA0F8403000207047002070470F
:1055200084B038B505AC84E80E000123A0F8403003
:105530000024A0F84040A0F84440A0F85040FFF7F5
:10554000D9FF2046BDE8384004B0704730B4034668
:105550000A7830F82240A4B224F4EC4424F0700419
:10556000A4B2C87803285BD8DFE800F04E56025298
:10557000002048F280052C4323F822400C7833F8B1
:10558000242012B222F4E04222F07002224392B2AE
:105590002A4323F824200A7B002A40F0A7804A7877
:1055A000002A4ED0B3F850201A440C7802EBC40203
:1055B000CC8864086400A2F800440C7833F82420F6
:1055C00012F0400F0CD033F8242092B222F4E042C3
:1055D00022F0700242F4004242F0C00223F824207C
:1055E000CA78012A1ED0097833F8212092B222F419
:1055F000E04222F0400282F0200242F4004242F0F7
:10560000800223F821205CE044F400740020B0E71D
:1056100044F4C0640020ACE744F480640020A8E7B0
:105620000120A6E7097833F8212092B222F4E04263
:1056300022F0400242F4004242F0800223F821208E
:105640003FE0B3F850201A440C7802EBC402CC8837
:1056500064086400A2F80444B3F850201A440C789B
:1056600002EBC4020C6974BBB2F8064424F4F8449B
:105670006FEA44446FEA5444A2F806440C7833F8C5
:10568000242012F4804F0CD033F8242092B222F45C
:10569000E04222F0700242F4404242F0800223F8DD
:1056A0002420097833F8212092B222F4804222F09B
:1056B000700282F4405242F4004242F0800223F829
:1056C000212030BC70473D2C08D8650814F0010F2C
:1056D00000D00135AD02A2F80654CFE764096FEAA5
:1056E000C4646FEA5444A2F80644C7E70C7833F860
:1056F000242092B222F4E04222F0700242F40142ED
:1057000042F0800223F82420B3F850201A440C7889
:1057100002EBC4020C8964086400A2F80044B3F8E8
:1057200050201A440C7802EBC4024C8964086400CF
:10573000A2F804444A78002A4ED10C7833F8242089
:1057400012F4804F0CD033F8242092B222F4E042BD
:1057500022F0700242F4404242F0800223F82420FA
:105760000C7833F8242012F0400F0CD033F82420AA
:1057700092B222F4E04222F0700242F4004242F07F
:10578000C00223F824200C7833F8242092B222F4AB
:10579000E04222F0700242F4004242F0C00223F8DC
:1057A00024200D7833F8252092B222F4804222F092
:1057B000700282F4405248F28004224323F82520EC
:1057C000097833F8212092B222F4E04222F040021C
:1057D000224323F8212074E70C7833F8242012F4B4
:1057E000804F0CD033F8242092B222F4E04222F011
:1057F000700242F4404242F0800223F824200C78E8
:1058000033F8242012F0400F0CD033F8242092B249
:1058100022F4E04222F0700242F4004242F0C00260
:1058200023F824200C7833F8242092B222F4E042AA
:1058300022F0700242F4404242F0800223F8242019
:10584000CA78012A1ED00C7833F8242092B222F4B0
:10585000E04222F0400282F0200242F4004242F094
:10586000800223F82420097833F8212092B222F410
:10587000804222F0700242F4004242F0800223F89B
:1058800021201EE70C7833F8242092B222F4E04263
:1058900022F0400242F4004242F0800223F8242029
:1058A000E1E70B7B002B46D14B7813B30A7830F835
:1058B000223013F0400F0CD030F822309BB223F48A
:1058C000E04323F0700343F4004343F0C00320F8A7
:1058D00022300A7830F822309BB223F4E04323F0E0
:1058E000400343F4004343F0800320F822300020BB
:1058F00070470A7830F8223013F4804F0CD030F81B
:1059000022309BB223F4E04323F0700343F440437E
:1059100043F0800320F822300A7830F822309BB21E
:1059200023F4804323F0700343F4004343F08003E7
:1059300020F82230DBE710B44B78002B4FD10A78E7
:1059400030F8223013F4804F0CD030F822309BB264
:1059500023F4E04323F0700343F4404343F0800317
:1059600020F822300A7830F8223013F0400F0CD0A3
:1059700030F822309BB223F4E04323F0700343F469
:10598000004343F0C00320F822300A7830F8223078
:105990009BB223F4E04323F0700343F4004343F04D
:1059A000C00320F822300B7830F8232092B222F482
:1059B000804222F0700248F28004224320F8232023
:1059C0000A7830F822309BB223F4E04323F04003FE
:1059D000234320F8223000205DF8044B70470A78FA
:1059E00030F8223013F4804F0CD030F822309BB2C4
:1059F00023F4E04323F0700343F4404343F0800377
:105A000020F822300A7830F8223013F0400F0CD002
:105A100030F822309BB223F4E04323F0700343F4C8
:105A2000004343F0C00320F822300A7830F82230D7
:105A30009BB223F4E04323F0700343F4404343F06C
:105A4000800320F822300B7830F8232092B222F421
:105A5000E04222F0400248F28004224320F8232052
:105A60000A7830F822309BB223F4804323F070038D
:105A7000234320F82230AEE74B788BB90A7830F810
:105A800022309BB223F4804323F0700383F48053CD
:105A900043F4004343F0800320F822300020704795
:105AA0000A7830F822309BB223F4E04323F040031D
:105AB00083F0100343F4004343F0800320F82230C6
:105AC000ECE70B7B002B4BD14B7833B30A7830F8E3
:105AD000223013F0400F0CD030F822309BB223F468
